:020000020000FC
:100000000CE30AB910E014B915B913B131D034D0EA
:1000100037D03AD042E053E064E075E039D03CD0CC
:100020003FD042D045D047D049D04BD00C2F182FCD
:100030001D231F232C2F2923122B282F29232E2366
:100040003D2F3A234C2F4A23232B242B89238A2309
:10005000CB238C2B382F42E053E064E075E034D0A2
:1000600037D03AD03DD0012B022B032B0BB9FFCF59
:1000700004E0812F8023089508E0912F90230895B4
:1000800000E1A12FA023089500E2B12FB02308952D
:1000900086954A95E9F7089596955A95E9F7089552
:1000A000A6956A95E9F70895B6957A95E9F70895C2
:1000B000C1E0C8270895D1E0D9270895E1E0EA27F3
:1000C0000895F1E0FB270895000F4A95E9F7089598
:1000D000110F5A95E9F70895220F6A95E9F70895E7
:0800E000330F7A95E9F708954A
:00000001FF
