:100000000C9434000C943E000C943E000C943E0082
:100010000C943E000C943E000C943E000C943E0068
:100020000C943E000C943E000C943E000C943E0058
:100030000C943E000C943E000C943E000C943E0048
:100040000C943E000C943E000C943E000C943E0038
:100050000C943E000C943E000C943E000C943E0028
:100060000C943E000C943E0011241FBECFEFD8E04C
:10007000DEBFCDBF0E9440000C945A000C940000DB
:1000800080E284B915B851E083B123B18170482F63
:10009000452791E0322F327021FD90E0942321E03A
:1000A000311101C020E08223892B8295880F807E48
:0800B00085B9EACFF894FFCFF7
:00000001FF
