:100000000C9461000C9473000C9473000C947300B6
:100010000C9473000C9473000C9473000C94730094
:100020000C9473000C9473000C9473000C94730084
:100030000C9473000C9473000C9473000C94730074
:100040000C944B010C9473000C9473000C9473008B
:100050000C9473000C9473000C9473000C94730054
:100060000C9473000C94730000000000240027001F
:100070002A0000000000250028002B0000000000DE
:1000800023002600290004040404040404040202DA
:100090000202020203030303030301020408102007
:1000A0004080010204081020010204081020000012
:1000B0000008000201000003040700000000000027
:1000C000000011241FBECFEFD8E0DEBFCDBF21E07E
:1000D000A0E0B1E001C01D92AF30B207E1F70E948D
:1000E00095010C9493020C940000833081F028F465
:1000F000813099F08230A9F008958730A9F08830D6
:10010000C9F08430B1F4809180008F7D03C080916C
:1001100080008F7780938000089584B58F7784BDA9
:10012000089584B58F7DFBCF8091B0008F77809349
:10013000B00008958091B0008F7DF9CFCF93DF9309
:10014000282F30E0F901E255FF4F8491F901E6567E
:10015000FF4FD491F901EA57FF4FC491CC23A1F08E
:1001600081110E947500EC2FF0E0EE0FFF1FE458A4
:10017000FF4FA591B491EC91ED2381E090E009F45B
:1001800080E0DF91CF91089580E090E0FACF1F9357
:10019000CF93DF93282F30E0F901E255FF4F849190
:1001A000F901E656FF4FD491F901EA57FF4FC49188
:1001B000CC23A9F0162F81110E947500EC2FF0E0DE
:1001C000EE0FFF1FEE58FF4FA591B4918FB7F89433
:1001D000EC91111108C0D095DE23DC938FBFDF9125
:1001E000CF911F910895DE2BF8CFCF93DF9390E04E
:1001F000FC01E656FF4F24918A579F4FFC018491E2
:100200008823D1F090E0880F991FFC01E859FF4F37
:10021000A591B491FC01EE58FF4FC591D4916111A5
:100220000EC09FB7F8948C91E22FE0958E238C93AB
:100230002881E223E8839FBFDF91CF9108958FB794
:10024000F894EC91E22BEC938FBFF6CF3FB7F89484
:1002500080910B0190910C01A0910D01B0910E01C4
:1002600026B5A89B05C02F3F19F00196A11DB11D11
:100270003FBFBA2FA92F982F8827BC01CD01620F4D
:10028000711D811D911D42E0660F771F881F991F08
:100290004A95D1F708951F920F920FB60F9211242D
:1002A0002F933F938F939F93AF93BF9380910701B9
:1002B00090910801A0910901B0910A0130910601C5
:1002C00023E0230F2D3758F50196A11DB11D209372
:1002D00006018093070190930801A0930901B09350
:1002E0000A0180910B0190910C01A0910D01B09138
:1002F0000E010196A11DB11D80930B0190930C017D
:10030000A0930D01B0930E01BF91AF919F918F917A
:100310003F912F910F900FBE0F901F90189526E8D8
:10032000230F0296A11DB11DD2CF789484B58260AF
:1003300084BD84B5816084BD85B5826085BD85B589
:10034000816085BD80916E00816080936E00109207
:100350008100809181008260809381008091810082
:100360008160809381008091800081608093800013
:100370008091B10084608093B1008091B000816071
:100380008093B00080917A00846080937A0080919D
:100390007A00826080937A0080917A0081608093F5
:1003A0007A0080917A00806880937A001092C10070
:1003B00061E082E00E94F50061E083E00E94F500C8
:1003C00061E084E00E94F50061E085E00E94F500B4
:1003D00060E08AE00E94F50060E08BE00E94F5009A
:1003E00060E08CE00E94F50060E08DE00E94F50086
:1003F00061E088E00E94F50090E0C92E90E0D92EDF
:1004000061E088E00E94C7008AE00E949E00EC0143
:1004100090930501809304018BE00E949E007C0173
:1004200090930301809302018CE00E949E008C0156
:1004300090930101809300018DE00E949E0061E095
:10044000209709F060E0CD2B51F0EF28A9F4892B1B
:1004500009F462C0012B91F4C0E0D0E019C0C1E002
:10046000E114F10409F4C0E0EF2859F4D1E0012BC4
:1004700009F4D0E0C0E009C0012B61F4D1E0C0E094
:1004800007C0D1E0012B09F4D0E011E0892B29F459
:1004900010E003C0D0E0C0E011E082E00E94C7009D
:1004A0006C2F83E00E94C7006D2F84E00E94C7007C
:1004B000612F85E00E94C70060E088E00E94C700CD
:1004C0000E9426012B013C0188EE882E83E0982EA5
:1004D000A12CB12C0E94260164197509860997097F
:1004E000683E734081059105A8F321E0821A9108C6
:1004F000A108B10888EE480E83E0581E611C711CEB
:1005000081149104A104B10429F7C114D10409F4A0
:1005100077CF0E94000074CFC1E0012B09F49DCF7A
:0A052000D1E0C1E0B5CFF894FFCFA1
:00000001FF
